{
  "contractName": "SimpleStorage",
  "abi": [
    {
      "anonymous": false,
      "inputs": [
        {
          "indexed": false,
          "internalType": "string",
          "name": "_message",
          "type": "string"
        }
      ],
      "name": "StorageSet",
      "type": "event"
    },
    {
      "inputs": [],
      "name": "storedData",
      "outputs": [
        {
          "internalType": "uint256",
          "name": "",
          "type": "uint256"
        }
      ],
      "stateMutability": "view",
      "type": "function"
    },
    {
      "inputs": [
        {
          "internalType": "uint256",
          "name": "x",
          "type": "uint256"
        }
      ],
      "name": "set",
      "outputs": [],
      "stateMutability": "nonpayable",
      "type": "function"
    }
  ],
  "bytecode": "0x608060405234801561000f575f80fd5b506101ed8061001d5f395ff3fe608060405234801561000f575f80fd5b5060043610610034575f3560e01c80632a1afcd91461003857806360fe47b114610056575b5f80fd5b610040610072565b60405161004d91906100cd565b60405180910390f35b610070600480360381019061006b9190610114565b610077565b005b5f5481565b805f819055507f60cdc157ca4737a5d39a0e107532616e7bf6946e615228812c7f9bc9f81797a66040516100aa90610199565b60405180910390a150565b5f819050919050565b6100c7816100b5565b82525050565b5f6020820190506100e05f8301846100be565b92915050565b5f80fd5b6100f3816100b5565b81146100fd575f80fd5b50565b5f8135905061010e816100ea565b92915050565b5f60208284031215610129576101286100e6565b5b5f61013684828501610100565b91505092915050565b5f82825260208201905092915050565b7f446174612073746f726564207375636365737366756c6c7921000000000000005f82015250565b5f61018360198361013f565b915061018e8261014f565b602082019050919050565b5f6020820190508181035f8301526101b081610177565b905091905056fea26469706673582212204d23042e60ea4158a4a1a84bba0fff32403886b4c98f02581a5f5799257d062364736f6c63430008150033",
  "immutableReferences": {},
  "source": "// SPDX-License-Identifier: MIT\npragma solidity >=0.6.0 <0.9.0;\n\ncontract SimpleStorage {\n    event StorageSet(string _message);\n\n    uint256 public storedData;\n\n    function set(uint256 x) public {\n        storedData = x;\n        emit StorageSet(\"Data stored successfully!\");\n    }\n}\n",
  "sourcePath": "C:\\Users\\DELL\\Desktop\\ReactApp\\Project\\contracts\\SimpleStorage.sol",
  "compiler": {
    "name": "solc",
    "version": "0.8.21+commit.d9974bed.Emscripten.clang"
  },
  "schemaVersion": "3.4.16",
  "updatedAt": "2023-10-14T10:36:57.852Z",
  "devdoc": {
    "kind": "dev",
    "methods": {},
    "version": 1
  },
  "userdoc": {
    "kind": "user",
    "methods": {},
    "version": 1
  }
}